{
  "_format": "hh-sol-artifact-1",
  "contractName": "TrustChain",
  "sourceName": "contracts/TrustChain.sol",
  "abi": [
    {
      "inputs": [],
      "stateMutability": "nonpayable",
      "type": "constructor"
    },
    {
      "anonymous": false,
      "inputs": [
        {
          "indexed": true,
          "internalType": "uint256",
          "name": "jobId",
          "type": "uint256"
        },
        {
          "indexed": true,
          "internalType": "address",
          "name": "recruiter",
          "type": "address"
        }
      ],
      "name": "JobDeleted",
      "type": "event"
    },
    {
      "anonymous": false,
      "inputs": [
        {
          "indexed": true,
          "internalType": "uint256",
          "name": "jobId",
          "type": "uint256"
        },
        {
          "indexed": false,
          "internalType": "uint256",
          "name": "reportCount",
          "type": "uint256"
        }
      ],
      "name": "JobMarkedSuspicious",
      "type": "event"
    },
    {
      "anonymous": false,
      "inputs": [
        {
          "indexed": true,
          "internalType": "uint256",
          "name": "jobId",
          "type": "uint256"
        },
        {
          "indexed": true,
          "internalType": "address",
          "name": "recruiter",
          "type": "address"
        },
        {
          "indexed": false,
          "internalType": "string",
          "name": "cid",
          "type": "string"
        },
        {
          "indexed": false,
          "internalType": "bytes32",
          "name": "dataHash",
          "type": "bytes32"
        },
        {
          "indexed": false,
          "internalType": "uint256",
          "name": "timestamp",
          "type": "uint256"
        }
      ],
      "name": "JobPosted",
      "type": "event"
    },
    {
      "anonymous": false,
      "inputs": [
        {
          "indexed": true,
          "internalType": "uint256",
          "name": "jobId",
          "type": "uint256"
        },
        {
          "indexed": true,
          "internalType": "address",
          "name": "reporter",
          "type": "address"
        },
        {
          "indexed": false,
          "internalType": "uint256",
          "name": "reportCount",
          "type": "uint256"
        }
      ],
      "name": "JobReported",
      "type": "event"
    },
    {
      "anonymous": false,
      "inputs": [
        {
          "indexed": true,
          "internalType": "uint256",
          "name": "jobId",
          "type": "uint256"
        },
        {
          "indexed": false,
          "internalType": "string",
          "name": "company",
          "type": "string"
        },
        {
          "indexed": false,
          "internalType": "string",
          "name": "title",
          "type": "string"
        },
        {
          "indexed": false,
          "internalType": "uint256",
          "name": "timestamp",
          "type": "uint256"
        }
      ],
      "name": "JobVerified",
      "type": "event"
    },
    {
      "anonymous": false,
      "inputs": [
        {
          "indexed": true,
          "internalType": "address",
          "name": "recruiter",
          "type": "address"
        },
        {
          "indexed": false,
          "internalType": "uint256",
          "name": "slashedAmount",
          "type": "uint256"
        }
      ],
      "name": "RecruiterSlashed",
      "type": "event"
    },
    {
      "anonymous": false,
      "inputs": [
        {
          "indexed": true,
          "internalType": "address",
          "name": "recruiter",
          "type": "address"
        },
        {
          "indexed": false,
          "internalType": "uint256",
          "name": "timestamp",
          "type": "uint256"
        }
      ],
      "name": "RecruiterVerified",
      "type": "event"
    },
    {
      "anonymous": false,
      "inputs": [
        {
          "indexed": true,
          "internalType": "address",
          "name": "recruiter",
          "type": "address"
        },
        {
          "indexed": false,
          "internalType": "uint256",
          "name": "amount",
          "type": "uint256"
        }
      ],
      "name": "StakeDeposited",
      "type": "event"
    },
    {
      "inputs": [],
      "name": "REPORT_THRESHOLD",
      "outputs": [
        {
          "internalType": "uint256",
          "name": "",
          "type": "uint256"
        }
      ],
      "stateMutability": "view",
      "type": "function"
    },
    {
      "inputs": [],
      "name": "STAKE_AMOUNT",
      "outputs": [
        {
          "internalType": "uint256",
          "name": "",
          "type": "uint256"
        }
      ],
      "stateMutability": "view",
      "type": "function"
    },
    {
      "inputs": [
        {
          "internalType": "uint256",
          "name": "jobId",
          "type": "uint256"
        }
      ],
      "name": "deleteJob",
      "outputs": [],
      "stateMutability": "nonpayable",
      "type": "function"
    },
    {
      "inputs": [],
      "name": "depositStake",
      "outputs": [],
      "stateMutability": "payable",
      "type": "function"
    },
    {
      "inputs": [],
      "name": "getAllJobIds",
      "outputs": [
        {
          "internalType": "uint256[]",
          "name": "",
          "type": "uint256[]"
        }
      ],
      "stateMutability": "view",
      "type": "function"
    },
    {
      "inputs": [],
      "name": "getContractBalance",
      "outputs": [
        {
          "internalType": "uint256",
          "name": "",
          "type": "uint256"
        }
      ],
      "stateMutability": "view",
      "type": "function"
    },
    {
      "inputs": [
        {
          "internalType": "uint256",
          "name": "jobId",
          "type": "uint256"
        }
      ],
      "name": "getJob",
      "outputs": [
        {
          "internalType": "uint256",
          "name": "id",
          "type": "uint256"
        },
        {
          "internalType": "string",
          "name": "cid",
          "type": "string"
        },
        {
          "internalType": "bytes32",
          "name": "dataHash",
          "type": "bytes32"
        },
        {
          "internalType": "address",
          "name": "recruiter",
          "type": "address"
        },
        {
          "internalType": "uint256",
          "name": "timestamp",
          "type": "uint256"
        },
        {
          "internalType": "uint256",
          "name": "reportCount",
          "type": "uint256"
        },
        {
          "internalType": "bool",
          "name": "isSuspicious",
          "type": "bool"
        },
        {
          "internalType": "bool",
          "name": "isActive",
          "type": "bool"
        }
      ],
      "stateMutability": "view",
      "type": "function"
    },
    {
      "inputs": [
        {
          "internalType": "address",
          "name": "recruiter",
          "type": "address"
        }
      ],
      "name": "getRecruiter",
      "outputs": [
        {
          "internalType": "bool",
          "name": "isVerified",
          "type": "bool"
        },
        {
          "internalType": "uint256",
          "name": "reputation",
          "type": "uint256"
        },
        {
          "internalType": "uint256",
          "name": "jobsPosted",
          "type": "uint256"
        },
        {
          "internalType": "uint256",
          "name": "stake",
          "type": "uint256"
        },
        {
          "internalType": "uint256",
          "name": "joinedAt",
          "type": "uint256"
        }
      ],
      "stateMutability": "view",
      "type": "function"
    },
    {
      "inputs": [
        {
          "internalType": "uint256",
          "name": "",
          "type": "uint256"
        },
        {
          "internalType": "address",
          "name": "",
          "type": "address"
        }
      ],
      "name": "hasReported",
      "outputs": [
        {
          "internalType": "bool",
          "name": "",
          "type": "bool"
        }
      ],
      "stateMutability": "view",
      "type": "function"
    },
    {
      "inputs": [
        {
          "internalType": "address",
          "name": "",
          "type": "address"
        }
      ],
      "name": "isVerifiedRecruiter",
      "outputs": [
        {
          "internalType": "bool",
          "name": "",
          "type": "bool"
        }
      ],
      "stateMutability": "view",
      "type": "function"
    },
    {
      "inputs": [],
      "name": "jobCount",
      "outputs": [
        {
          "internalType": "uint256",
          "name": "",
          "type": "uint256"
        }
      ],
      "stateMutability": "view",
      "type": "function"
    },
    {
      "inputs": [
        {
          "internalType": "bytes32",
          "name": "",
          "type": "bytes32"
        }
      ],
      "name": "jobExistsHash",
      "outputs": [
        {
          "internalType": "bool",
          "name": "",
          "type": "bool"
        }
      ],
      "stateMutability": "view",
      "type": "function"
    },
    {
      "inputs": [
        {
          "internalType": "uint256",
          "name": "",
          "type": "uint256"
        }
      ],
      "name": "jobs",
      "outputs": [
        {
          "internalType": "uint256",
          "name": "id",
          "type": "uint256"
        },
        {
          "internalType": "string",
          "name": "cid",
          "type": "string"
        },
        {
          "internalType": "bytes32",
          "name": "dataHash",
          "type": "bytes32"
        },
        {
          "internalType": "address",
          "name": "recruiter",
          "type": "address"
        },
        {
          "internalType": "uint256",
          "name": "timestamp",
          "type": "uint256"
        },
        {
          "internalType": "uint256",
          "name": "reportCount",
          "type": "uint256"
        },
        {
          "internalType": "bool",
          "name": "isSuspicious",
          "type": "bool"
        },
        {
          "internalType": "bool",
          "name": "isActive",
          "type": "bool"
        }
      ],
      "stateMutability": "view",
      "type": "function"
    },
    {
      "inputs": [],
      "name": "owner",
      "outputs": [
        {
          "internalType": "address",
          "name": "",
          "type": "address"
        }
      ],
      "stateMutability": "view",
      "type": "function"
    },
    {
      "inputs": [
        {
          "internalType": "string",
          "name": "cid",
          "type": "string"
        },
        {
          "internalType": "bytes32",
          "name": "dataHash",
          "type": "bytes32"
        },
        {
          "internalType": "string",
          "name": "company",
          "type": "string"
        },
        {
          "internalType": "string",
          "name": "title",
          "type": "string"
        }
      ],
      "name": "postJob",
      "outputs": [],
      "stateMutability": "nonpayable",
      "type": "function"
    },
    {
      "inputs": [
        {
          "internalType": "address",
          "name": "",
          "type": "address"
        }
      ],
      "name": "recruiters",
      "outputs": [
        {
          "internalType": "bool",
          "name": "isVerified",
          "type": "bool"
        },
        {
          "internalType": "uint256",
          "name": "reputation",
          "type": "uint256"
        },
        {
          "internalType": "uint256",
          "name": "jobsPosted",
          "type": "uint256"
        },
        {
          "internalType": "uint256",
          "name": "stake",
          "type": "uint256"
        },
        {
          "internalType": "uint256",
          "name": "joinedAt",
          "type": "uint256"
        }
      ],
      "stateMutability": "view",
      "type": "function"
    },
    {
      "inputs": [
        {
          "internalType": "uint256",
          "name": "jobId",
          "type": "uint256"
        }
      ],
      "name": "reportJob",
      "outputs": [],
      "stateMutability": "nonpayable",
      "type": "function"
    },
    {
      "inputs": [
        {
          "internalType": "address",
          "name": "recruiter",
          "type": "address"
        }
      ],
      "name": "slashRecruiter",
      "outputs": [],
      "stateMutability": "nonpayable",
      "type": "function"
    },
    {
      "inputs": [
        {
          "internalType": "uint256",
          "name": "jobId",
          "type": "uint256"
        },
        {
          "internalType": "bytes32",
          "name": "providedHash",
          "type": "bytes32"
        }
      ],
      "name": "verifyJobIntegrity",
      "outputs": [
        {
          "internalType": "bool",
          "name": "",
          "type": "bool"
        }
      ],
      "stateMutability": "view",
      "type": "function"
    },
    {
      "inputs": [
        {
          "internalType": "address",
          "name": "recruiter",
          "type": "address"
        }
      ],
      "name": "verifyRecruiter",
      "outputs": [],
      "stateMutability": "nonpayable",
      "type": "function"
    },
    {
      "stateMutability": "payable",
      "type": "receive"
    }
  ],
  "bytecode": "0x608060405234801561001057600080fd5b50600080546001600160a01b0319163390811790915561002f90610034565b6101be565b6001600160a01b03811661008f5760405162461bcd60e51b815260206004820152601b60248201527f5472757374436861696e3a20696e76616c69642061646472657373000000000060448201526064015b60405180910390fd5b6001600160a01b03811660009081526002602052604090205460ff16156100f85760405162461bcd60e51b815260206004820152601c60248201527f5472757374436861696e3a20616c7265616479207665726966696564000000006044820152606401610086565b6001600160a01b03811660008181526002602081815260408084208054600160ff199182168117909255825160a08101845282815260648186019081528185018881526060830189815242608085018181528c8c526003808b529b899020955186549097169615159690961785559251958401959095555196820196909655915195820195909555935160049094019390935591519081527f5884690ed5460e715c63155cfb0d2a0154e1ccdbb4e1ceeb5cea2f96f0fe987b910160405180910390a250565b611a89806101cd6000396000f3fe6080604052600436106101235760003560e01c80636f9fb98a116100a0578063b4db211c11610064578063b4db211c146103e6578063bf22c45714610406578063ca00489714610426578063f1a80a1d14610456578063faf5625f1461047657600080fd5b80636f9fb98a146102ef57806388c8837f146103045780638da5cb5b146103265780639d30a6961461035e578063a84d97761461038e57600080fd5b80634aa06447116100e75780634aa06447146102565780634c5d8a0f146102795780635c698dc31461028f5780636358bb8c146102af5780636b203970146102cf57600080fd5b80630320f1a21461012f5780630d2d76a2146101515780630f0c3fc414610159578063180aedf3146101a95780633882b585146101dd57600080fd5b3661012a57005b600080fd5b34801561013b57600080fd5b5061014f61014a36600461146f565b610491565b005b61014f610631565b34801561016557600080fd5b50610194610174366004611491565b600560209081526000928352604080842090915290825290205460ff1681565b60405190151581526020015b60405180910390f35b3480156101b557600080fd5b506101c96101c43660046114bd565b610723565b6040516101a0989796959493929190611526565b3480156101e957600080fd5b5061022c6101f836600461146f565b60036020819052600091825260409091208054600182015460028301549383015460049093015460ff909216939092909185565b6040805195151586526020860194909452928401919091526060830152608082015260a0016101a0565b34801561026257600080fd5b5061026b600581565b6040519081526020016101a0565b34801561028557600080fd5b5061026b60015481565b34801561029b57600080fd5b5061014f6102aa3660046114bd565b6107fd565b3480156102bb57600080fd5b5061014f6102ca3660046114bd565b610afc565b3480156102db57600080fd5b5061014f6102ea36600461146f565b610c33565b3480156102fb57600080fd5b5061026b610c69565b34801561031057600080fd5b50610319610c99565b6040516101a09190611580565b34801561033257600080fd5b50600054610346906001600160a01b031681565b6040516001600160a01b0390911681526020016101a0565b34801561036a57600080fd5b506101946103793660046114bd565b60066020526000908152604090205460ff1681565b34801561039a57600080fd5b5061022c6103a936600461146f565b6001600160a01b031660009081526003602081905260409091208054600182015460028301549383015460049093015460ff909216949093929190565b3480156103f257600080fd5b506101946104013660046115c4565b610da3565b34801561041257600080fd5b506101c96104213660046114bd565b610e23565b34801561043257600080fd5b5061019461044136600461146f565b60026020526000908152604090205460ff1681565b34801561046257600080fd5b5061014f610471366004611689565b610f8e565b34801561048257600080fd5b5061026b662386f26fc1000081565b6000546001600160a01b031633146104c45760405162461bcd60e51b81526004016104bb9061171b565b60405180910390fd5b6001600160a01b03811660009081526002602052604090205460ff166104fc5760405162461bcd60e51b81526004016104bb9061175e565b6001600160a01b03811660009081526003602081815260408084208084018054908690556002845291909420805460ff1990811690915592909152825490911690915580156105ea57600080546040516001600160a01b039091169083908381818185875af1925050503d8060008114610592576040519150601f19603f3d011682016040523d82523d6000602084013e610597565b606091505b50509050806105e85760405162461bcd60e51b815260206004820152601f60248201527f5472757374436861696e3a20455448207472616e73666572206661696c65640060448201526064016104bb565b505b816001600160a01b03167f39fc5e10b9cb8d41eab208bca8f7e070cc6c49e85fdfa2e42161e9a1e0e7947d8260405161062591815260200190565b60405180910390a25050565b3360009081526002602052604090205460ff166106605760405162461bcd60e51b81526004016104bb9061175e565b662386f26fc100003410156106c55760405162461bcd60e51b815260206004820152602560248201527f5472757374436861696e3a20696e73756666696369656e74207374616b6520616044820152641b5bdd5b9d60da1b60648201526084016104bb565b33600090815260036020819052604082200180543492906106e79084906117b8565b909155505060405134815233907f0a7bb2e28cc4698aac06db79cf9163bfcc20719286cf59fa7d492ceda1b8edc29060200160405180910390a2565b60046020526000908152604090208054600182018054919291610745906117d1565b80601f0160208091040260200160405190810160405280929190818152602001828054610771906117d1565b80156107be5780601f10610793576101008083540402835291602001916107be565b820191906000526020600020905b8154815290600101906020018083116107a157829003601f168201915b5050506002840154600385015460048601546005870154600690970154959692956001600160a01b039092169450925060ff8082169161010090041688565b8060008111801561081057506001548111155b61082c5760405162461bcd60e51b81526004016104bb9061180b565b600081815260046020526040902060060154610100900460ff166108625760405162461bcd60e51b81526004016104bb90611842565b600082815260056020908152604080832033845290915290205460ff16156108da5760405162461bcd60e51b815260206004820152602560248201527f5472757374436861696e3a20616c7265616479207265706f727465642074686960448201526439903537b160d91b60648201526084016104bb565b600082815260046020526040902060030154336001600160a01b039091160361094f5760405162461bcd60e51b815260206004820152602160248201527f5472757374436861696e3a2063616e6e6f74207265706f7274206f776e206a6f6044820152603160f91b60648201526084016104bb565b60008281526005602081815260408084203385528252808420805460ff19166001179055858452600490915282200180549161098a83611879565b909155505060008281526004602090815260408083206003908101546001600160a01b03168085529252909120600101546005116109f9576001600160a01b03811660009081526003602052604081206001018054600592906109ee908490611892565b90915550610a169050565b6001600160a01b0381166000908152600360205260408120600101555b600083815260046020908152604091829020600501549151918252339185917f414844e007c6ec881f56d7265d32db36ccf6a1e440d30f0473ae0b87189b7e77910160405180910390a3600083815260046020526040902060059081015410801590610a94575060008381526004602052604090206006015460ff16155b15610af7576000838152600460205260409081902060068101805460ff1916600117905560050154905184917f5dedb8852f79c1780b87674bdfd4974a3a916d26094f4a20983ced695a9f35c691610aee91815260200190565b60405180910390a25b505050565b80600081118015610b0f57506001548111155b610b2b5760405162461bcd60e51b81526004016104bb9061180b565b600081815260046020526040902060060154610100900460ff16610b615760405162461bcd60e51b81526004016104bb90611842565b6000828152600460205260409020600301546001600160a01b0316331480610b9357506000546001600160a01b031633145b610beb5760405162461bcd60e51b8152602060048201526024808201527f5472757374436861696e3a206e6f7420617574686f72697a656420746f2064656044820152636c65746560e01b60648201526084016104bb565b600082815260046020526040808220600601805461ff001916905551339184917f89f27608841804f17b8e014428ff9f1b09d1e415313170c8de783b0de71316ba9190a35050565b6000546001600160a01b03163314610c5d5760405162461bcd60e51b81526004016104bb9061171b565b610c66816112ce565b50565b600080546001600160a01b03163314610c945760405162461bcd60e51b81526004016104bb9061171b565b504790565b6060600060015b6001548111610ce857600081815260046020526040902060060154610100900460ff1615610cd65781610cd281611879565b9250505b80610ce081611879565b915050610ca0565b5060008167ffffffffffffffff811115610d0457610d046115e6565b604051908082528060200260200182016040528015610d2d578160200160208202803683370190505b509050600060015b6001548111610d9a57600081815260046020526040902060060154610100900460ff1615610d8857808383610d6981611879565b945081518110610d7b57610d7b6118a5565b6020026020010181815250505b80610d9281611879565b915050610d35565b50909392505050565b600082600081118015610db857506001548111155b610dd45760405162461bcd60e51b81526004016104bb9061180b565b600081815260046020526040902060060154610100900460ff16610e0a5760405162461bcd60e51b81526004016104bb90611842565b5050600091825260046020526040909120600201541490565b6000606060008060008060008088600081118015610e4357506001548111155b610e5f5760405162461bcd60e51b81526004016104bb9061180b565b600081815260046020526040902060060154610100900460ff16610e955760405162461bcd60e51b81526004016104bb90611842565b60008a815260046020819052604090912080546002820154600383015493830154600584015460068501546001860180549697959690956001600160a01b031693929160ff8082169261010090920416908790610ef1906117d1565b80601f0160208091040260200160405190810160405280929190818152602001828054610f1d906117d1565b8015610f6a5780601f10610f3f57610100808354040283529160200191610f6a565b820191906000526020600020905b815481529060010190602001808311610f4d57829003601f168201915b50505050509650995099509950995099509950995099505050919395975091939597565b3360009081526002602052604090205460ff16610fbd5760405162461bcd60e51b81526004016104bb9061175e565b600084511161100e5760405162461bcd60e51b815260206004820152601f60248201527f5472757374436861696e3a204349442063616e6e6f7420626520656d7074790060448201526064016104bb565b826110675760405162461bcd60e51b8152602060048201526024808201527f5472757374436861696e3a2064617461486173682063616e6e6f7420626520656044820152636d70747960e01b60648201526084016104bb565b6000828260405160200161107c9291906118bb565b60408051601f1981840301815291815281516020928301206000818152600690935291205490915060ff161561110d5760405162461bcd60e51b815260206004820152603060248201527f5472757374436861696e3a204475706c6963617465204a6f622044657465637460448201526f32b21037b710213637b1b5b1b430b4b760811b60648201526084016104bb565b6000818152600660205260408120805460ff1916600190811790915580549161113583611879565b909155505060408051610100810182526001805480835260208084018a81528486018a9052336060860152426080860152600060a0860181905260c0860181905260e0860185905292835260049091529390208251815592519192919082019061119f9082611938565b506040828101516002838101919091556060840151600380850180546001600160a01b0319166001600160a01b03909316929092179091556080850151600485015560a0850151600585015560c08501516006909401805460e09096015161ffff1990961694151561ff00191694909417610100951515959095029490941790925533600090815260209390935282200180549161123c83611879565b91905055506001547f2c59b282e4e536910666b370af91249b60c2cc60f197626b914e514f5a9c0a5e848442604051611277939291906119f8565b60405180910390a2336001600160a01b03166001547ffa107fdfed77ab01d0638ba8c53a56c61131416ec116ff4ea14b5aa2c434e53f8787426040516112bf93929190611a2e565b60405180910390a35050505050565b6001600160a01b0381166113245760405162461bcd60e51b815260206004820152601b60248201527f5472757374436861696e3a20696e76616c69642061646472657373000000000060448201526064016104bb565b6001600160a01b03811660009081526002602052604090205460ff161561138d5760405162461bcd60e51b815260206004820152601c60248201527f5472757374436861696e3a20616c72656164792076657269666965640000000060448201526064016104bb565b6001600160a01b03811660008181526002602081815260408084208054600160ff199182168117909255825160a08101845282815260648186019081528185018881526060830189815242608085018181528c8c526003808b529b899020955186549097169615159690961785559251958401959095555196820196909655915195820195909555935160049094019390935591519081527f5884690ed5460e715c63155cfb0d2a0154e1ccdbb4e1ceeb5cea2f96f0fe987b910160405180910390a250565b80356001600160a01b038116811461146a57600080fd5b919050565b60006020828403121561148157600080fd5b61148a82611453565b9392505050565b600080604083850312156114a457600080fd5b823591506114b460208401611453565b90509250929050565b6000602082840312156114cf57600080fd5b5035919050565b60005b838110156114f15781810151838201526020016114d9565b50506000910152565b600081518084526115128160208601602086016114d6565b601f01601f19169290920160200192915050565b60006101008a83528060208401526115408184018b6114fa565b604084019990995250506001600160a01b03959095166060860152608085019390935260a0840191909152151560c0830152151560e09091015292915050565b6020808252825182820181905260009190848201906040850190845b818110156115b85783518352928401929184019160010161159c565b50909695505050505050565b600080604083850312156115d757600080fd5b50508035926020909101359150565b634e487b7160e01b600052604160045260246000fd5b600082601f83011261160d57600080fd5b813567ffffffffffffffff80821115611628576116286115e6565b604051601f8301601f19908116603f01168101908282118183101715611650576116506115e6565b8160405283815286602085880101111561166957600080fd5b836020870160208301376000602085830101528094505050505092915050565b6000806000806080858703121561169f57600080fd5b843567ffffffffffffffff808211156116b757600080fd5b6116c3888389016115fc565b95506020870135945060408701359150808211156116e057600080fd5b6116ec888389016115fc565b9350606087013591508082111561170257600080fd5b5061170f878288016115fc565b91505092959194509250565b60208082526023908201527f5472757374436861696e3a2063616c6c6572206973206e6f7420746865206f776040820152623732b960e91b606082015260800190565b60208082526024908201527f5472757374436861696e3a206e6f74206120766572696669656420726563727560408201526334ba32b960e11b606082015260800190565b634e487b7160e01b600052601160045260246000fd5b808201808211156117cb576117cb6117a2565b92915050565b600181811c908216806117e557607f821691505b60208210810361180557634e487b7160e01b600052602260045260246000fd5b50919050565b6020808252601e908201527f5472757374436861696e3a206a6f6220646f6573206e6f742065786973740000604082015260600190565b6020808252601d908201527f5472757374436861696e3a206a6f62206973206e6f7420616374697665000000604082015260600190565b60006001820161188b5761188b6117a2565b5060010190565b818103818111156117cb576117cb6117a2565b634e487b7160e01b600052603260045260246000fd5b600083516118cd8184602088016114d6565b8351908301906118e18183602088016114d6565b01949350505050565b601f821115610af757600081815260208120601f850160051c810160208610156119115750805b601f850160051c820191505b818110156119305782815560010161191d565b505050505050565b815167ffffffffffffffff811115611952576119526115e6565b6119668161196084546117d1565b846118ea565b602080601f83116001811461199b57600084156119835750858301515b600019600386901b1c1916600185901b178555611930565b600085815260208120601f198616915b828110156119ca578886015182559484019460019091019084016119ab565b50858210156119e85787850151600019600388901b60f8161c191681555b5050505050600190811b01905550565b606081526000611a0b60608301866114fa565b8281036020840152611a1d81866114fa565b915050826040830152949350505050565b606081526000611a4160608301866114fa565b6020830194909452506040015291905056fea26469706673582212205016ea45f5829b91f1ec9c4260f2d8afbe2a8ffbe507f9db52694020ccf3aa8264736f6c63430008140033",
  "linkReferences": {},
  "deployedLinkReferences": {}
}