{
  "_format": "hh-sol-artifact-1",
  "contractName": "TrustChain",
  "sourceName": "contracts/TrustChain.sol",
  "abi": [
    {
      "inputs": [],
      "stateMutability": "nonpayable",
      "type": "constructor"
    },
    {
      "anonymous": false,
      "inputs": [
        {
          "indexed": true,
          "internalType": "uint256",
          "name": "jobId",
          "type": "uint256"
        },
        {
          "indexed": true,
          "internalType": "address",
          "name": "recruiter",
          "type": "address"
        }
      ],
      "name": "JobDeleted",
      "type": "event"
    },
    {
      "anonymous": false,
      "inputs": [
        {
          "indexed": true,
          "internalType": "uint256",
          "name": "jobId",
          "type": "uint256"
        },
        {
          "indexed": false,
          "internalType": "uint256",
          "name": "reportCount",
          "type": "uint256"
        }
      ],
      "name": "JobMarkedSuspicious",
      "type": "event"
    },
    {
      "anonymous": false,
      "inputs": [
        {
          "indexed": true,
          "internalType": "uint256",
          "name": "jobId",
          "type": "uint256"
        },
        {
          "indexed": true,
          "internalType": "address",
          "name": "recruiter",
          "type": "address"
        },
        {
          "indexed": false,
          "internalType": "string",
          "name": "cid",
          "type": "string"
        },
        {
          "indexed": false,
          "internalType": "bytes32",
          "name": "dataHash",
          "type": "bytes32"
        },
        {
          "indexed": false,
          "internalType": "uint256",
          "name": "timestamp",
          "type": "uint256"
        }
      ],
      "name": "JobPosted",
      "type": "event"
    },
    {
      "anonymous": false,
      "inputs": [
        {
          "indexed": true,
          "internalType": "uint256",
          "name": "jobId",
          "type": "uint256"
        },
        {
          "indexed": true,
          "internalType": "address",
          "name": "reporter",
          "type": "address"
        },
        {
          "indexed": false,
          "internalType": "uint256",
          "name": "reportCount",
          "type": "uint256"
        }
      ],
      "name": "JobReported",
      "type": "event"
    },
    {
      "anonymous": false,
      "inputs": [
        {
          "indexed": true,
          "internalType": "uint256",
          "name": "jobId",
          "type": "uint256"
        },
        {
          "indexed": false,
          "internalType": "string",
          "name": "company",
          "type": "string"
        },
        {
          "indexed": false,
          "internalType": "string",
          "name": "title",
          "type": "string"
        },
        {
          "indexed": false,
          "internalType": "uint256",
          "name": "timestamp",
          "type": "uint256"
        }
      ],
      "name": "JobVerified",
      "type": "event"
    },
    {
      "anonymous": false,
      "inputs": [
        {
          "indexed": true,
          "internalType": "address",
          "name": "recruiter",
          "type": "address"
        },
        {
          "indexed": false,
          "internalType": "uint256",
          "name": "slashedAmount",
          "type": "uint256"
        }
      ],
      "name": "RecruiterSlashed",
      "type": "event"
    },
    {
      "anonymous": false,
      "inputs": [
        {
          "indexed": true,
          "internalType": "address",
          "name": "recruiter",
          "type": "address"
        },
        {
          "indexed": false,
          "internalType": "uint256",
          "name": "timestamp",
          "type": "uint256"
        }
      ],
      "name": "RecruiterVerified",
      "type": "event"
    },
    {
      "anonymous": false,
      "inputs": [
        {
          "indexed": true,
          "internalType": "address",
          "name": "recruiter",
          "type": "address"
        },
        {
          "indexed": false,
          "internalType": "uint256",
          "name": "amount",
          "type": "uint256"
        }
      ],
      "name": "StakeDeposited",
      "type": "event"
    },
    {
      "inputs": [],
      "name": "REPORT_THRESHOLD",
      "outputs": [
        {
          "internalType": "uint256",
          "name": "",
          "type": "uint256"
        }
      ],
      "stateMutability": "view",
      "type": "function"
    },
    {
      "inputs": [],
      "name": "STAKE_AMOUNT",
      "outputs": [
        {
          "internalType": "uint256",
          "name": "",
          "type": "uint256"
        }
      ],
      "stateMutability": "view",
      "type": "function"
    },
    {
      "inputs": [
        {
          "internalType": "uint256",
          "name": "jobId",
          "type": "uint256"
        }
      ],
      "name": "deleteJob",
      "outputs": [],
      "stateMutability": "nonpayable",
      "type": "function"
    },
    {
      "inputs": [],
      "name": "depositStake",
      "outputs": [],
      "stateMutability": "payable",
      "type": "function"
    },
    {
      "inputs": [],
      "name": "getAllJobIds",
      "outputs": [
        {
          "internalType": "uint256[]",
          "name": "",
          "type": "uint256[]"
        }
      ],
      "stateMutability": "view",
      "type": "function"
    },
    {
      "inputs": [],
      "name": "getContractBalance",
      "outputs": [
        {
          "internalType": "uint256",
          "name": "",
          "type": "uint256"
        }
      ],
      "stateMutability": "view",
      "type": "function"
    },
    {
      "inputs": [
        {
          "internalType": "uint256",
          "name": "jobId",
          "type": "uint256"
        }
      ],
      "name": "getJob",
      "outputs": [
        {
          "internalType": "uint256",
          "name": "id",
          "type": "uint256"
        },
        {
          "internalType": "string",
          "name": "cid",
          "type": "string"
        },
        {
          "internalType": "bytes32",
          "name": "dataHash",
          "type": "bytes32"
        },
        {
          "internalType": "address",
          "name": "recruiter",
          "type": "address"
        },
        {
          "internalType": "uint256",
          "name": "timestamp",
          "type": "uint256"
        },
        {
          "internalType": "uint256",
          "name": "reportCount",
          "type": "uint256"
        },
        {
          "internalType": "bool",
          "name": "isSuspicious",
          "type": "bool"
        },
        {
          "internalType": "bool",
          "name": "isActive",
          "type": "bool"
        }
      ],
      "stateMutability": "view",
      "type": "function"
    },
    {
      "inputs": [
        {
          "internalType": "address",
          "name": "recruiter",
          "type": "address"
        }
      ],
      "name": "getRecruiter",
      "outputs": [
        {
          "internalType": "bool",
          "name": "isVerified",
          "type": "bool"
        },
        {
          "internalType": "uint256",
          "name": "reputation",
          "type": "uint256"
        },
        {
          "internalType": "uint256",
          "name": "jobsPosted",
          "type": "uint256"
        },
        {
          "internalType": "uint256",
          "name": "stake",
          "type": "uint256"
        },
        {
          "internalType": "uint256",
          "name": "joinedAt",
          "type": "uint256"
        }
      ],
      "stateMutability": "view",
      "type": "function"
    },
    {
      "inputs": [
        {
          "internalType": "uint256",
          "name": "",
          "type": "uint256"
        },
        {
          "internalType": "address",
          "name": "",
          "type": "address"
        }
      ],
      "name": "hasReported",
      "outputs": [
        {
          "internalType": "bool",
          "name": "",
          "type": "bool"
        }
      ],
      "stateMutability": "view",
      "type": "function"
    },
    {
      "inputs": [
        {
          "internalType": "address",
          "name": "",
          "type": "address"
        }
      ],
      "name": "isVerifiedRecruiter",
      "outputs": [
        {
          "internalType": "bool",
          "name": "",
          "type": "bool"
        }
      ],
      "stateMutability": "view",
      "type": "function"
    },
    {
      "inputs": [],
      "name": "jobCount",
      "outputs": [
        {
          "internalType": "uint256",
          "name": "",
          "type": "uint256"
        }
      ],
      "stateMutability": "view",
      "type": "function"
    },
    {
      "inputs": [
        {
          "internalType": "bytes32",
          "name": "",
          "type": "bytes32"
        }
      ],
      "name": "jobExistsHash",
      "outputs": [
        {
          "internalType": "bool",
          "name": "",
          "type": "bool"
        }
      ],
      "stateMutability": "view",
      "type": "function"
    },
    {
      "inputs": [
        {
          "internalType": "uint256",
          "name": "",
          "type": "uint256"
        }
      ],
      "name": "jobs",
      "outputs": [
        {
          "internalType": "uint256",
          "name": "id",
          "type": "uint256"
        },
        {
          "internalType": "string",
          "name": "cid",
          "type": "string"
        },
        {
          "internalType": "bytes32",
          "name": "dataHash",
          "type": "bytes32"
        },
        {
          "internalType": "address",
          "name": "recruiter",
          "type": "address"
        },
        {
          "internalType": "uint256",
          "name": "timestamp",
          "type": "uint256"
        },
        {
          "internalType": "uint256",
          "name": "reportCount",
          "type": "uint256"
        },
        {
          "internalType": "bool",
          "name": "isSuspicious",
          "type": "bool"
        },
        {
          "internalType": "bool",
          "name": "isActive",
          "type": "bool"
        }
      ],
      "stateMutability": "view",
      "type": "function"
    },
    {
      "inputs": [],
      "name": "owner",
      "outputs": [
        {
          "internalType": "address",
          "name": "",
          "type": "address"
        }
      ],
      "stateMutability": "view",
      "type": "function"
    },
    {
      "inputs": [
        {
          "internalType": "string",
          "name": "cid",
          "type": "string"
        },
        {
          "internalType": "bytes32",
          "name": "dataHash",
          "type": "bytes32"
        },
        {
          "internalType": "string",
          "name": "company",
          "type": "string"
        },
        {
          "internalType": "string",
          "name": "title",
          "type": "string"
        }
      ],
      "name": "postJob",
      "outputs": [],
      "stateMutability": "nonpayable",
      "type": "function"
    },
    {
      "inputs": [
        {
          "internalType": "address",
          "name": "",
          "type": "address"
        }
      ],
      "name": "recruiters",
      "outputs": [
        {
          "internalType": "bool",
          "name": "isVerified",
          "type": "bool"
        },
        {
          "internalType": "uint256",
          "name": "reputation",
          "type": "uint256"
        },
        {
          "internalType": "uint256",
          "name": "jobsPosted",
          "type": "uint256"
        },
        {
          "internalType": "uint256",
          "name": "stake",
          "type": "uint256"
        },
        {
          "internalType": "uint256",
          "name": "joinedAt",
          "type": "uint256"
        }
      ],
      "stateMutability": "view",
      "type": "function"
    },
    {
      "inputs": [
        {
          "internalType": "uint256",
          "name": "jobId",
          "type": "uint256"
        }
      ],
      "name": "reportJob",
      "outputs": [],
      "stateMutability": "nonpayable",
      "type": "function"
    },
    {
      "inputs": [
        {
          "internalType": "address",
          "name": "recruiter",
          "type": "address"
        }
      ],
      "name": "slashRecruiter",
      "outputs": [],
      "stateMutability": "nonpayable",
      "type": "function"
    },
    {
      "inputs": [
        {
          "internalType": "uint256",
          "name": "jobId",
          "type": "uint256"
        },
        {
          "internalType": "bytes32",
          "name": "providedHash",
          "type": "bytes32"
        }
      ],
      "name": "verifyJobIntegrity",
      "outputs": [
        {
          "internalType": "bool",
          "name": "",
          "type": "bool"
        }
      ],
      "stateMutability": "view",
      "type": "function"
    },
    {
      "inputs": [
        {
          "internalType": "address",
          "name": "recruiter",
          "type": "address"
        }
      ],
      "name": "verifyRecruiter",
      "outputs": [],
      "stateMutability": "nonpayable",
      "type": "function"
    },
    {
      "stateMutability": "payable",
      "type": "receive"
    }
  ],
  "bytecode": "0x608060405234801561001057600080fd5b50600080546001600160a01b0319163390811790915561002f90610034565b6101be565b6001600160a01b03811661008f5760405162461bcd60e51b815260206004820152601b60248201527f5472757374436861696e3a20696e76616c69642061646472657373000000000060448201526064015b60405180910390fd5b6001600160a01b03811660009081526002602052604090205460ff16156100f85760405162461bcd60e51b815260206004820152601c60248201527f5472757374436861696e3a20616c7265616479207665726966696564000000006044820152606401610086565b6001600160a01b03811660008181526002602081815260408084208054600160ff199182168117909255825160a08101845282815260648186019081528185018881526060830189815242608085018181528c8c526003808b529b899020955186549097169615159690961785559251958401959095555196820196909655915195820195909555935160049094019390935591519081527f5884690ed5460e715c63155cfb0d2a0154e1ccdbb4e1ceeb5cea2f96f0fe987b910160405180910390a250565b611a43806101cd6000396000f3fe6080604052600436106101235760003560e01c80636f9fb98a116100a0578063b4db211c11610064578063b4db211c146103e6578063bf22c45714610406578063ca00489714610426578063f1a80a1d14610456578063faf5625f1461047657600080fd5b80636f9fb98a146102ef57806388c8837f146103045780638da5cb5b146103265780639d30a6961461035e578063a84d97761461038e57600080fd5b80634aa06447116100e75780634aa06447146102565780634c5d8a0f146102795780635c698dc31461028f5780636358bb8c146102af5780636b203970146102cf57600080fd5b80630320f1a21461012f5780630d2d76a2146101515780630f0c3fc414610159578063180aedf3146101a95780633882b585146101dd57600080fd5b3661012a57005b600080fd5b34801561013b57600080fd5b5061014f61014a36600461146d565b610491565b005b61014f61066d565b34801561016557600080fd5b5061019461017436600461148f565b600560209081526000928352604080842090915290825290205460ff1681565b60405190151581526020015b60405180910390f35b3480156101b557600080fd5b506101c96101c43660046114bb565b610750565b6040516101a0989796959493929190611524565b3480156101e957600080fd5b5061022c6101f836600461146d565b60036020819052600091825260409091208054600182015460028301549383015460049093015460ff909216939092909185565b6040805195151586526020860194909452928401919091526060830152608082015260a0016101a0565b34801561026257600080fd5b5061026b600581565b6040519081526020016101a0565b34801561028557600080fd5b5061026b60015481565b34801561029b57600080fd5b5061014f6102aa3660046114bb565b61082a565b3480156102bb57600080fd5b5061014f6102ca3660046114bb565b610b29565b3480156102db57600080fd5b5061014f6102ea36600461146d565b610c60565b3480156102fb57600080fd5b5061026b610c96565b34801561031057600080fd5b50610319610cc6565b6040516101a0919061157e565b34801561033257600080fd5b50600054610346906001600160a01b031681565b6040516001600160a01b0390911681526020016101a0565b34801561036a57600080fd5b506101946103793660046114bb565b60066020526000908152604090205460ff1681565b34801561039a57600080fd5b5061022c6103a936600461146d565b6001600160a01b031660009081526003602081905260409091208054600182015460028301549383015460049093015460ff909216949093929190565b3480156103f257600080fd5b506101946104013660046115c2565b610dd0565b34801561041257600080fd5b506101c96104213660046114bb565b610e50565b34801561043257600080fd5b5061019461044136600461146d565b60026020526000908152604090205460ff1681565b34801561046257600080fd5b5061014f610471366004611687565b610fbb565b34801561048257600080fd5b5061026b662386f26fc1000081565b6000546001600160a01b031633146104c45760405162461bcd60e51b81526004016104bb90611719565b60405180910390fd5b6001600160a01b03811660009081526002602052604090205460ff166105385760405162461bcd60e51b8152602060048201526024808201527f5472757374436861696e3a206e6f74206120766572696669656420726563727560448201526334ba32b960e11b60648201526084016104bb565b6001600160a01b03811660009081526003602081815260408084208084018054908690556002845291909420805460ff19908116909155929091528254909116909155801561062657600080546040516001600160a01b039091169083908381818185875af1925050503d80600081146105ce576040519150601f19603f3d011682016040523d82523d6000602084013e6105d3565b606091505b50509050806106245760405162461bcd60e51b815260206004820152601f60248201527f5472757374436861696e3a20455448207472616e73666572206661696c65640060448201526064016104bb565b505b816001600160a01b03167f39fc5e10b9cb8d41eab208bca8f7e070cc6c49e85fdfa2e42161e9a1e0e7947d8260405161066191815260200190565b60405180910390a25050565b3360009081526002602052604090205460ff1661068d5761068d336112cc565b662386f26fc100003410156106f25760405162461bcd60e51b815260206004820152602560248201527f5472757374436861696e3a20696e73756666696369656e74207374616b6520616044820152641b5bdd5b9d60da1b60648201526084016104bb565b3360009081526003602081905260408220018054349290610714908490611772565b909155505060405134815233907f0a7bb2e28cc4698aac06db79cf9163bfcc20719286cf59fa7d492ceda1b8edc29060200160405180910390a2565b600460205260009081526040902080546001820180549192916107729061178b565b80601f016020809104026020016040519081016040528092919081815260200182805461079e9061178b565b80156107eb5780601f106107c0576101008083540402835291602001916107eb565b820191906000526020600020905b8154815290600101906020018083116107ce57829003601f168201915b5050506002840154600385015460048601546005870154600690970154959692956001600160a01b039092169450925060ff8082169161010090041688565b8060008111801561083d57506001548111155b6108595760405162461bcd60e51b81526004016104bb906117c5565b600081815260046020526040902060060154610100900460ff1661088f5760405162461bcd60e51b81526004016104bb906117fc565b600082815260056020908152604080832033845290915290205460ff16156109075760405162461bcd60e51b815260206004820152602560248201527f5472757374436861696e3a20616c7265616479207265706f727465642074686960448201526439903537b160d91b60648201526084016104bb565b600082815260046020526040902060030154336001600160a01b039091160361097c5760405162461bcd60e51b815260206004820152602160248201527f5472757374436861696e3a2063616e6e6f74207265706f7274206f776e206a6f6044820152603160f91b60648201526084016104bb565b60008281526005602081815260408084203385528252808420805460ff1916600117905585845260049091528220018054916109b783611833565b909155505060008281526004602090815260408083206003908101546001600160a01b0316808552925290912060010154600511610a26576001600160a01b0381166000908152600360205260408120600101805460059290610a1b90849061184c565b90915550610a439050565b6001600160a01b0381166000908152600360205260408120600101555b600083815260046020908152604091829020600501549151918252339185917f414844e007c6ec881f56d7265d32db36ccf6a1e440d30f0473ae0b87189b7e77910160405180910390a3600083815260046020526040902060059081015410801590610ac1575060008381526004602052604090206006015460ff16155b15610b24576000838152600460205260409081902060068101805460ff1916600117905560050154905184917f5dedb8852f79c1780b87674bdfd4974a3a916d26094f4a20983ced695a9f35c691610b1b91815260200190565b60405180910390a25b505050565b80600081118015610b3c57506001548111155b610b585760405162461bcd60e51b81526004016104bb906117c5565b600081815260046020526040902060060154610100900460ff16610b8e5760405162461bcd60e51b81526004016104bb906117fc565b6000828152600460205260409020600301546001600160a01b0316331480610bc057506000546001600160a01b031633145b610c185760405162461bcd60e51b8152602060048201526024808201527f5472757374436861696e3a206e6f7420617574686f72697a656420746f2064656044820152636c65746560e01b60648201526084016104bb565b600082815260046020526040808220600601805461ff001916905551339184917f89f27608841804f17b8e014428ff9f1b09d1e415313170c8de783b0de71316ba9190a35050565b6000546001600160a01b03163314610c8a5760405162461bcd60e51b81526004016104bb90611719565b610c93816112cc565b50565b600080546001600160a01b03163314610cc15760405162461bcd60e51b81526004016104bb90611719565b504790565b6060600060015b6001548111610d1557600081815260046020526040902060060154610100900460ff1615610d035781610cff81611833565b9250505b80610d0d81611833565b915050610ccd565b5060008167ffffffffffffffff811115610d3157610d316115e4565b604051908082528060200260200182016040528015610d5a578160200160208202803683370190505b509050600060015b6001548111610dc757600081815260046020526040902060060154610100900460ff1615610db557808383610d9681611833565b945081518110610da857610da861185f565b6020026020010181815250505b80610dbf81611833565b915050610d62565b50909392505050565b600082600081118015610de557506001548111155b610e015760405162461bcd60e51b81526004016104bb906117c5565b600081815260046020526040902060060154610100900460ff16610e375760405162461bcd60e51b81526004016104bb906117fc565b5050600091825260046020526040909120600201541490565b6000606060008060008060008088600081118015610e7057506001548111155b610e8c5760405162461bcd60e51b81526004016104bb906117c5565b600081815260046020526040902060060154610100900460ff16610ec25760405162461bcd60e51b81526004016104bb906117fc565b60008a815260046020819052604090912080546002820154600383015493830154600584015460068501546001860180549697959690956001600160a01b031693929160ff8082169261010090920416908790610f1e9061178b565b80601f0160208091040260200160405190810160405280929190818152602001828054610f4a9061178b565b8015610f975780601f10610f6c57610100808354040283529160200191610f97565b820191906000526020600020905b815481529060010190602001808311610f7a57829003601f168201915b50505050509650995099509950995099509950995099505050919395975091939597565b600084511161100c5760405162461bcd60e51b815260206004820152601f60248201527f5472757374436861696e3a204349442063616e6e6f7420626520656d7074790060448201526064016104bb565b826110655760405162461bcd60e51b8152602060048201526024808201527f5472757374436861696e3a2064617461486173682063616e6e6f7420626520656044820152636d70747960e01b60648201526084016104bb565b6000828260405160200161107a929190611875565b60408051601f1981840301815291815281516020928301206000818152600690935291205490915060ff161561110b5760405162461bcd60e51b815260206004820152603060248201527f5472757374436861696e3a204475706c6963617465204a6f622044657465637460448201526f32b21037b710213637b1b5b1b430b4b760811b60648201526084016104bb565b6000818152600660205260408120805460ff1916600190811790915580549161113383611833565b909155505060408051610100810182526001805480835260208084018a81528486018a9052336060860152426080860152600060a0860181905260c0860181905260e0860185905292835260049091529390208251815592519192919082019061119d90826118f2565b506040828101516002838101919091556060840151600380850180546001600160a01b0319166001600160a01b03909316929092179091556080850151600485015560a0850151600585015560c08501516006909401805460e09096015161ffff1990961694151561ff00191694909417610100951515959095029490941790925533600090815260209390935282200180549161123a83611833565b91905055506001547f2c59b282e4e536910666b370af91249b60c2cc60f197626b914e514f5a9c0a5e848442604051611275939291906119b2565b60405180910390a2336001600160a01b03166001547ffa107fdfed77ab01d0638ba8c53a56c61131416ec116ff4ea14b5aa2c434e53f8787426040516112bd939291906119e8565b60405180910390a35050505050565b6001600160a01b0381166113225760405162461bcd60e51b815260206004820152601b60248201527f5472757374436861696e3a20696e76616c69642061646472657373000000000060448201526064016104bb565b6001600160a01b03811660009081526002602052604090205460ff161561138b5760405162461bcd60e51b815260206004820152601c60248201527f5472757374436861696e3a20616c72656164792076657269666965640000000060448201526064016104bb565b6001600160a01b03811660008181526002602081815260408084208054600160ff199182168117909255825160a08101845282815260648186019081528185018881526060830189815242608085018181528c8c526003808b529b899020955186549097169615159690961785559251958401959095555196820196909655915195820195909555935160049094019390935591519081527f5884690ed5460e715c63155cfb0d2a0154e1ccdbb4e1ceeb5cea2f96f0fe987b910160405180910390a250565b80356001600160a01b038116811461146857600080fd5b919050565b60006020828403121561147f57600080fd5b61148882611451565b9392505050565b600080604083850312156114a257600080fd5b823591506114b260208401611451565b90509250929050565b6000602082840312156114cd57600080fd5b5035919050565b60005b838110156114ef5781810151838201526020016114d7565b50506000910152565b600081518084526115108160208601602086016114d4565b601f01601f19169290920160200192915050565b60006101008a835280602084015261153e8184018b6114f8565b604084019990995250506001600160a01b03959095166060860152608085019390935260a0840191909152151560c0830152151560e09091015292915050565b6020808252825182820181905260009190848201906040850190845b818110156115b65783518352928401929184019160010161159a565b50909695505050505050565b600080604083850312156115d557600080fd5b50508035926020909101359150565b634e487b7160e01b600052604160045260246000fd5b600082601f83011261160b57600080fd5b813567ffffffffffffffff80821115611626576116266115e4565b604051601f8301601f19908116603f0116810190828211818310171561164e5761164e6115e4565b8160405283815286602085880101111561166757600080fd5b836020870160208301376000602085830101528094505050505092915050565b6000806000806080858703121561169d57600080fd5b843567ffffffffffffffff808211156116b557600080fd5b6116c1888389016115fa565b95506020870135945060408701359150808211156116de57600080fd5b6116ea888389016115fa565b9350606087013591508082111561170057600080fd5b5061170d878288016115fa565b91505092959194509250565b60208082526023908201527f5472757374436861696e3a2063616c6c6572206973206e6f7420746865206f776040820152623732b960e91b606082015260800190565b634e487b7160e01b600052601160045260246000fd5b808201808211156117855761178561175c565b92915050565b600181811c9082168061179f57607f821691505b6020821081036117bf57634e487b7160e01b600052602260045260246000fd5b50919050565b6020808252601e908201527f5472757374436861696e3a206a6f6220646f6573206e6f742065786973740000604082015260600190565b6020808252601d908201527f5472757374436861696e3a206a6f62206973206e6f7420616374697665000000604082015260600190565b6000600182016118455761184561175c565b5060010190565b818103818111156117855761178561175c565b634e487b7160e01b600052603260045260246000fd5b600083516118878184602088016114d4565b83519083019061189b8183602088016114d4565b01949350505050565b601f821115610b2457600081815260208120601f850160051c810160208610156118cb5750805b601f850160051c820191505b818110156118ea578281556001016118d7565b505050505050565b815167ffffffffffffffff81111561190c5761190c6115e4565b6119208161191a845461178b565b846118a4565b602080601f831160018114611955576000841561193d5750858301515b600019600386901b1c1916600185901b1785556118ea565b600085815260208120601f198616915b8281101561198457888601518255948401946001909101908401611965565b50858210156119a25787850151600019600388901b60f8161c191681555b5050505050600190811b01905550565b6060815260006119c560608301866114f8565b82810360208401526119d781866114f8565b915050826040830152949350505050565b6060815260006119fb60608301866114f8565b6020830194909452506040015291905056fea2646970667358221220f491521592a4c3499aad74d01b4a8fffaf3c295f7e0e94732ba4c7256e55172264736f6c63430008140033",
  "linkReferences": {},
  "deployedLinkReferences": {}
}